{
  "contractName": "Hotel",
  "abi": [
    {
      "inputs": [
        {
          "internalType": "address",
          "name": "owner",
          "type": "address"
        },
        {
          "internalType": "string",
          "name": "name",
          "type": "string"
        }
      ],
      "stateMutability": "nonpayable",
      "type": "constructor"
    },
    {
      "anonymous": false,
      "inputs": [
        {
          "indexed": true,
          "internalType": "address",
          "name": "account",
          "type": "address"
        },
        {
          "indexed": true,
          "internalType": "address",
          "name": "operator",
          "type": "address"
        },
        {
          "indexed": false,
          "internalType": "bool",
          "name": "approved",
          "type": "bool"
        }
      ],
      "name": "ApprovalForAll",
      "type": "event"
    },
    {
      "anonymous": false,
      "inputs": [
        {
          "indexed": true,
          "internalType": "address",
          "name": "previousOwner",
          "type": "address"
        },
        {
          "indexed": true,
          "internalType": "address",
          "name": "newOwner",
          "type": "address"
        }
      ],
      "name": "OwnershipTransferred",
      "type": "event"
    },
    {
      "anonymous": false,
      "inputs": [
        {
          "indexed": true,
          "internalType": "address",
          "name": "operator",
          "type": "address"
        },
        {
          "indexed": true,
          "internalType": "address",
          "name": "from",
          "type": "address"
        },
        {
          "indexed": true,
          "internalType": "address",
          "name": "to",
          "type": "address"
        },
        {
          "indexed": false,
          "internalType": "uint256[]",
          "name": "ids",
          "type": "uint256[]"
        },
        {
          "indexed": false,
          "internalType": "uint256[]",
          "name": "values",
          "type": "uint256[]"
        }
      ],
      "name": "TransferBatch",
      "type": "event"
    },
    {
      "anonymous": false,
      "inputs": [
        {
          "indexed": true,
          "internalType": "address",
          "name": "operator",
          "type": "address"
        },
        {
          "indexed": true,
          "internalType": "address",
          "name": "from",
          "type": "address"
        },
        {
          "indexed": true,
          "internalType": "address",
          "name": "to",
          "type": "address"
        },
        {
          "indexed": false,
          "internalType": "uint256",
          "name": "id",
          "type": "uint256"
        },
        {
          "indexed": false,
          "internalType": "uint256",
          "name": "value",
          "type": "uint256"
        }
      ],
      "name": "TransferSingle",
      "type": "event"
    },
    {
      "anonymous": false,
      "inputs": [
        {
          "indexed": false,
          "internalType": "string",
          "name": "value",
          "type": "string"
        },
        {
          "indexed": true,
          "internalType": "uint256",
          "name": "id",
          "type": "uint256"
        }
      ],
      "name": "URI",
      "type": "event"
    },
    {
      "inputs": [
        {
          "internalType": "address",
          "name": "account",
          "type": "address"
        },
        {
          "internalType": "uint256",
          "name": "id",
          "type": "uint256"
        }
      ],
      "name": "balanceOf",
      "outputs": [
        {
          "internalType": "uint256",
          "name": "",
          "type": "uint256"
        }
      ],
      "stateMutability": "view",
      "type": "function"
    },
    {
      "inputs": [
        {
          "internalType": "address[]",
          "name": "accounts",
          "type": "address[]"
        },
        {
          "internalType": "uint256[]",
          "name": "ids",
          "type": "uint256[]"
        }
      ],
      "name": "balanceOfBatch",
      "outputs": [
        {
          "internalType": "uint256[]",
          "name": "",
          "type": "uint256[]"
        }
      ],
      "stateMutability": "view",
      "type": "function"
    },
    {
      "inputs": [
        {
          "internalType": "address",
          "name": "account",
          "type": "address"
        },
        {
          "internalType": "uint256",
          "name": "id",
          "type": "uint256"
        },
        {
          "internalType": "uint256",
          "name": "value",
          "type": "uint256"
        }
      ],
      "name": "burn",
      "outputs": [],
      "stateMutability": "nonpayable",
      "type": "function"
    },
    {
      "inputs": [
        {
          "internalType": "address",
          "name": "account",
          "type": "address"
        },
        {
          "internalType": "uint256[]",
          "name": "ids",
          "type": "uint256[]"
        },
        {
          "internalType": "uint256[]",
          "name": "values",
          "type": "uint256[]"
        }
      ],
      "name": "burnBatch",
      "outputs": [],
      "stateMutability": "nonpayable",
      "type": "function"
    },
    {
      "inputs": [
        {
          "internalType": "uint256",
          "name": "timestamp",
          "type": "uint256"
        }
      ],
      "name": "getDay",
      "outputs": [
        {
          "internalType": "uint8",
          "name": "",
          "type": "uint8"
        }
      ],
      "stateMutability": "pure",
      "type": "function"
    },
    {
      "inputs": [
        {
          "internalType": "uint8",
          "name": "month",
          "type": "uint8"
        },
        {
          "internalType": "uint16",
          "name": "year",
          "type": "uint16"
        }
      ],
      "name": "getDaysInMonth",
      "outputs": [
        {
          "internalType": "uint8",
          "name": "",
          "type": "uint8"
        }
      ],
      "stateMutability": "pure",
      "type": "function"
    },
    {
      "inputs": [
        {
          "internalType": "uint256",
          "name": "timestamp",
          "type": "uint256"
        }
      ],
      "name": "getHour",
      "outputs": [
        {
          "internalType": "uint8",
          "name": "",
          "type": "uint8"
        }
      ],
      "stateMutability": "pure",
      "type": "function"
    },
    {
      "inputs": [
        {
          "internalType": "uint256",
          "name": "timestamp",
          "type": "uint256"
        }
      ],
      "name": "getMinute",
      "outputs": [
        {
          "internalType": "uint8",
          "name": "",
          "type": "uint8"
        }
      ],
      "stateMutability": "pure",
      "type": "function"
    },
    {
      "inputs": [
        {
          "internalType": "uint256",
          "name": "timestamp",
          "type": "uint256"
        }
      ],
      "name": "getMonth",
      "outputs": [
        {
          "internalType": "uint8",
          "name": "",
          "type": "uint8"
        }
      ],
      "stateMutability": "pure",
      "type": "function"
    },
    {
      "inputs": [
        {
          "internalType": "uint256",
          "name": "timestamp",
          "type": "uint256"
        }
      ],
      "name": "getSecond",
      "outputs": [
        {
          "internalType": "uint8",
          "name": "",
          "type": "uint8"
        }
      ],
      "stateMutability": "pure",
      "type": "function"
    },
    {
      "inputs": [
        {
          "internalType": "uint256",
          "name": "timestamp",
          "type": "uint256"
        }
      ],
      "name": "getWeekday",
      "outputs": [
        {
          "internalType": "uint8",
          "name": "",
          "type": "uint8"
        }
      ],
      "stateMutability": "pure",
      "type": "function"
    },
    {
      "inputs": [
        {
          "internalType": "uint256",
          "name": "timestamp",
          "type": "uint256"
        }
      ],
      "name": "getYear",
      "outputs": [
        {
          "internalType": "uint16",
          "name": "",
          "type": "uint16"
        }
      ],
      "stateMutability": "pure",
      "type": "function"
    },
    {
      "inputs": [
        {
          "internalType": "uint256",
          "name": "",
          "type": "uint256"
        }
      ],
      "name": "idToRoomNight",
      "outputs": [
        {
          "internalType": "uint256",
          "name": "tokenId",
          "type": "uint256"
        },
        {
          "internalType": "uint256",
          "name": "roomTypeId",
          "type": "uint256"
        },
        {
          "internalType": "uint256",
          "name": "date",
          "type": "uint256"
        },
        {
          "internalType": "uint256",
          "name": "price",
          "type": "uint256"
        }
      ],
      "stateMutability": "view",
      "type": "function"
    },
    {
      "inputs": [
        {
          "internalType": "uint256",
          "name": "",
          "type": "uint256"
        }
      ],
      "name": "idToRoomType",
      "outputs": [
        {
          "internalType": "uint256",
          "name": "roomTypeId",
          "type": "uint256"
        },
        {
          "internalType": "string",
          "name": "roomName",
          "type": "string"
        },
        {
          "internalType": "uint8",
          "name": "maxOccupancy",
          "type": "uint8"
        },
        {
          "internalType": "string",
          "name": "description",
          "type": "string"
        },
        {
          "internalType": "bool",
          "name": "allInclusive",
          "type": "bool"
        },
        {
          "internalType": "uint256",
          "name": "cxlPolicy",
          "type": "uint256"
        },
        {
          "internalType": "uint256",
          "name": "commission",
          "type": "uint256"
        }
      ],
      "stateMutability": "view",
      "type": "function"
    },
    {
      "inputs": [
        {
          "internalType": "address",
          "name": "account",
          "type": "address"
        },
        {
          "internalType": "address",
          "name": "operator",
          "type": "address"
        }
      ],
      "name": "isApprovedForAll",
      "outputs": [
        {
          "internalType": "bool",
          "name": "",
          "type": "bool"
        }
      ],
      "stateMutability": "view",
      "type": "function"
    },
    {
      "inputs": [
        {
          "internalType": "uint16",
          "name": "year",
          "type": "uint16"
        }
      ],
      "name": "isLeapYear",
      "outputs": [
        {
          "internalType": "bool",
          "name": "",
          "type": "bool"
        }
      ],
      "stateMutability": "pure",
      "type": "function"
    },
    {
      "inputs": [
        {
          "internalType": "uint256",
          "name": "year",
          "type": "uint256"
        }
      ],
      "name": "leapYearsBefore",
      "outputs": [
        {
          "internalType": "uint256",
          "name": "",
          "type": "uint256"
        }
      ],
      "stateMutability": "pure",
      "type": "function"
    },
    {
      "inputs": [],
      "name": "owner",
      "outputs": [
        {
          "internalType": "address",
          "name": "",
          "type": "address"
        }
      ],
      "stateMutability": "view",
      "type": "function"
    },
    {
      "inputs": [],
      "name": "renounceOwnership",
      "outputs": [],
      "stateMutability": "nonpayable",
      "type": "function"
    },
    {
      "inputs": [
        {
          "internalType": "address",
          "name": "from",
          "type": "address"
        },
        {
          "internalType": "address",
          "name": "to",
          "type": "address"
        },
        {
          "internalType": "uint256[]",
          "name": "ids",
          "type": "uint256[]"
        },
        {
          "internalType": "uint256[]",
          "name": "amounts",
          "type": "uint256[]"
        },
        {
          "internalType": "bytes",
          "name": "data",
          "type": "bytes"
        }
      ],
      "name": "safeBatchTransferFrom",
      "outputs": [],
      "stateMutability": "nonpayable",
      "type": "function"
    },
    {
      "inputs": [
        {
          "internalType": "address",
          "name": "from",
          "type": "address"
        },
        {
          "internalType": "address",
          "name": "to",
          "type": "address"
        },
        {
          "internalType": "uint256",
          "name": "id",
          "type": "uint256"
        },
        {
          "internalType": "uint256",
          "name": "amount",
          "type": "uint256"
        },
        {
          "internalType": "bytes",
          "name": "data",
          "type": "bytes"
        }
      ],
      "name": "safeTransferFrom",
      "outputs": [],
      "stateMutability": "nonpayable",
      "type": "function"
    },
    {
      "inputs": [
        {
          "internalType": "address",
          "name": "operator",
          "type": "address"
        },
        {
          "internalType": "bool",
          "name": "approved",
          "type": "bool"
        }
      ],
      "name": "setApprovalForAll",
      "outputs": [],
      "stateMutability": "nonpayable",
      "type": "function"
    },
    {
      "inputs": [
        {
          "internalType": "bytes4",
          "name": "interfaceId",
          "type": "bytes4"
        }
      ],
      "name": "supportsInterface",
      "outputs": [
        {
          "internalType": "bool",
          "name": "",
          "type": "bool"
        }
      ],
      "stateMutability": "view",
      "type": "function"
    },
    {
      "inputs": [
        {
          "internalType": "uint16",
          "name": "year",
          "type": "uint16"
        },
        {
          "internalType": "uint8",
          "name": "month",
          "type": "uint8"
        },
        {
          "internalType": "uint8",
          "name": "day",
          "type": "uint8"
        },
        {
          "internalType": "uint8",
          "name": "hour",
          "type": "uint8"
        },
        {
          "internalType": "uint8",
          "name": "minute",
          "type": "uint8"
        }
      ],
      "name": "toTimestamp",
      "outputs": [
        {
          "internalType": "uint256",
          "name": "timestamp",
          "type": "uint256"
        }
      ],
      "stateMutability": "pure",
      "type": "function"
    },
    {
      "inputs": [
        {
          "internalType": "uint16",
          "name": "year",
          "type": "uint16"
        },
        {
          "internalType": "uint8",
          "name": "month",
          "type": "uint8"
        },
        {
          "internalType": "uint8",
          "name": "day",
          "type": "uint8"
        },
        {
          "internalType": "uint8",
          "name": "hour",
          "type": "uint8"
        }
      ],
      "name": "toTimestamp",
      "outputs": [
        {
          "internalType": "uint256",
          "name": "timestamp",
          "type": "uint256"
        }
      ],
      "stateMutability": "pure",
      "type": "function"
    },
    {
      "inputs": [
        {
          "internalType": "uint16",
          "name": "year",
          "type": "uint16"
        },
        {
          "internalType": "uint8",
          "name": "month",
          "type": "uint8"
        },
        {
          "internalType": "uint8",
          "name": "day",
          "type": "uint8"
        }
      ],
      "name": "toTimestamp",
      "outputs": [
        {
          "internalType": "uint256",
          "name": "timestamp",
          "type": "uint256"
        }
      ],
      "stateMutability": "pure",
      "type": "function"
    },
    {
      "inputs": [
        {
          "internalType": "uint16",
          "name": "year",
          "type": "uint16"
        },
        {
          "internalType": "uint8",
          "name": "month",
          "type": "uint8"
        },
        {
          "internalType": "uint8",
          "name": "day",
          "type": "uint8"
        },
        {
          "internalType": "uint8",
          "name": "hour",
          "type": "uint8"
        },
        {
          "internalType": "uint8",
          "name": "minute",
          "type": "uint8"
        },
        {
          "internalType": "uint8",
          "name": "second",
          "type": "uint8"
        }
      ],
      "name": "toTimestamp",
      "outputs": [
        {
          "internalType": "uint256",
          "name": "timestamp",
          "type": "uint256"
        }
      ],
      "stateMutability": "pure",
      "type": "function"
    },
    {
      "inputs": [
        {
          "internalType": "address",
          "name": "newOwner",
          "type": "address"
        }
      ],
      "name": "transferOwnership",
      "outputs": [],
      "stateMutability": "nonpayable",
      "type": "function"
    },
    {
      "inputs": [
        {
          "internalType": "uint256",
          "name": "",
          "type": "uint256"
        }
      ],
      "name": "uri",
      "outputs": [
        {
          "internalType": "string",
          "name": "",
          "type": "string"
        }
      ],
      "stateMutability": "view",
      "type": "function"
    },
    {
      "inputs": [
        {
          "internalType": "string",
          "name": "_roomName",
          "type": "string"
        },
        {
          "internalType": "uint8",
          "name": "_maxOccupancy",
          "type": "uint8"
        },
        {
          "internalType": "string",
          "name": "_description",
          "type": "string"
        },
        {
          "internalType": "bool",
          "name": "_allInclusive",
          "type": "bool"
        },
        {
          "internalType": "uint256",
          "name": "_cxlPolicy",
          "type": "uint256"
        },
        {
          "internalType": "uint256",
          "name": "_commission",
          "type": "uint256"
        }
      ],
      "name": "createRoomType",
      "outputs": [],
      "stateMutability": "nonpayable",
      "type": "function"
    },
    {
      "inputs": [
        {
          "internalType": "uint8",
          "name": "startDay",
          "type": "uint8"
        },
        {
          "internalType": "uint8",
          "name": "startMonth",
          "type": "uint8"
        },
        {
          "internalType": "uint16",
          "name": "startYear",
          "type": "uint16"
        },
        {
          "internalType": "uint8",
          "name": "endDay",
          "type": "uint8"
        },
        {
          "internalType": "uint8",
          "name": "endMonth",
          "type": "uint8"
        },
        {
          "internalType": "uint16",
          "name": "endYear",
          "type": "uint16"
        }
      ],
      "name": "getTimestampsAndArrays",
      "outputs": [
        {
          "internalType": "uint256[]",
          "name": "",
          "type": "uint256[]"
        },
        {
          "internalType": "uint256[]",
          "name": "",
          "type": "uint256[]"
        },
        {
          "internalType": "uint256",
          "name": "",
          "type": "uint256"
        },
        {
          "internalType": "uint256",
          "name": "",
          "type": "uint256"
        }
      ],
      "stateMutability": "view",
      "type": "function"
    },
    {
      "inputs": [
        {
          "internalType": "uint256",
          "name": "roomTypeId",
          "type": "uint256"
        },
        {
          "internalType": "uint256",
          "name": "amount",
          "type": "uint256"
        },
        {
          "internalType": "uint256",
          "name": "price",
          "type": "uint256"
        },
        {
          "internalType": "uint8",
          "name": "startDay",
          "type": "uint8"
        },
        {
          "internalType": "uint8",
          "name": "startMonth",
          "type": "uint8"
        },
        {
          "internalType": "uint16",
          "name": "startYear",
          "type": "uint16"
        },
        {
          "internalType": "uint8",
          "name": "endDay",
          "type": "uint8"
        },
        {
          "internalType": "uint8",
          "name": "endMonth",
          "type": "uint8"
        },
        {
          "internalType": "uint16",
          "name": "endYear",
          "type": "uint16"
        }
      ],
      "name": "mintRoomNights",
      "outputs": [],
      "stateMutability": "nonpayable",
      "type": "function"
    }
  ],
  "bytecode": "0x60806040523480156200001157600080fd5b5060405162005da238038062005da2833981810160405281019062000037919062000324565b6040518060400160405280600381526020017f2c6d2c00000000000000000000000000000000000000000000000000000000008152506200007e816200010160201b60201c565b506200009f620000936200011d60201b60201c565b6200012560201b60201c565b81600460006101000a81548173ffffffffffffffffffffffffffffffffffffffff021916908373ffffffffffffffffffffffffffffffffffffffff1602179055508060059080519060200190620000f8929190620001eb565b5050506200053c565b806002908051906020019062000119929190620001eb565b5050565b600033905090565b6000600360009054906101000a900473ffffffffffffffffffffffffffffffffffffffff16905081600360006101000a81548173ffffffffffffffffffffffffffffffffffffffff021916908373ffffffffffffffffffffffffffffffffffffffff1602179055508173ffffffffffffffffffffffffffffffffffffffff168173ffffffffffffffffffffffffffffffffffffffff167f8be0079c531659141344cd1fd0a4f28419497f9722a3daafe3b4186f6b6457e060405160405180910390a35050565b828054620001f99062000447565b90600052602060002090601f0160209004810192826200021d576000855562000269565b82601f106200023857805160ff191683800117855562000269565b8280016001018555821562000269579182015b82811115620002685782518255916020019190600101906200024b565b5b5090506200027891906200027c565b5090565b5b80821115620002975760008160009055506001016200027d565b5090565b6000620002b2620002ac84620003a7565b6200037e565b905082815260208101848484011115620002cb57600080fd5b620002d884828562000411565b509392505050565b600081519050620002f18162000522565b92915050565b600082601f8301126200030957600080fd5b81516200031b8482602086016200029b565b91505092915050565b600080604083850312156200033857600080fd5b60006200034885828601620002e0565b925050602083015167ffffffffffffffff8111156200036657600080fd5b6200037485828601620002f7565b9150509250929050565b60006200038a6200039d565b90506200039882826200047d565b919050565b6000604051905090565b600067ffffffffffffffff821115620003c557620003c4620004e2565b5b620003d08262000511565b9050602081019050919050565b6000620003ea82620003f1565b9050919050565b600073ffffffffffffffffffffffffffffffffffffffff82169050919050565b60005b838110156200043157808201518184015260208101905062000414565b8381111562000441576000848401525b50505050565b600060028204905060018216806200046057607f821691505b60208210811415620004775762000476620004b3565b5b50919050565b620004888262000511565b810181811067ffffffffffffffff82111715620004aa57620004a9620004e2565b5b80604052505050565b7f4e487b7100000000000000000000000000000000000000000000000000000000600052602260045260246000fd5b7f4e487b7100000000000000000000000000000000000000000000000000000000600052604160045260246000fd5b6000601f19601f8301169050919050565b6200052d81620003dd565b81146200053957600080fd5b50565b615856806200054c6000396000f3fe608060405234801561001057600080fd5b50600436106101ef5760003560e01c80638da5cb5b1161010f578063b1999937116100a2578063f242432a11610071578063f242432a146106a4578063f2fde38b146106c0578063f5298aca146106dc578063fa93f883146106f8576101ef565b8063b1999937146105f8578063b238ad0e14610628578063bd2bbb5e14610658578063e985e9c514610674576101ef565b8063a22cb465116100de578063a22cb46514610560578063a324ad241461057c578063a6f0e577146105ac578063aaabd0c5146105dc576101ef565b80638da5cb5b146104af5780639054bdec146104cd57806392d66313146104fd578063958aabae1461052d576101ef565b806362ba9687116101875780637f791833116101565780637f791833146103e957806381df21e7146104195780638aa001fc1461044f5780638c8d98a01461047f576101ef565b806362ba96871461036357806365c72840146103935780636b20c454146103c3578063715018a6146103df576101ef565b80632eb2c2d6116101c35780632eb2c2d6146102b75780633e239e1a146102d35780634ac1ad78146103035780634e1273f414610333576101ef565b8062fdd58e146101f457806301ffc9a7146102245780630e89341c146102545780631c3dd82314610284575b600080fd5b61020e60048036038101906102099190613ec6565b610728565b60405161021b9190614b67565b60405180910390f35b61023e60048036038101906102399190613fbd565b6107f1565b60405161024b919061492f565b60405180910390f35b61026e600480360381019061026991906142a3565b6108d3565b60405161027b919061494a565b60405180910390f35b61029e600480360381019061029991906143ce565b610967565b6040516102ae94939291906148dc565b60405180910390f35b6102d160048036038101906102cc9190613cbd565b610b19565b005b6102ed60048036038101906102e891906142a3565b610bba565b6040516102fa9190614c6d565b60405180910390f35b61031d600480360381019061031891906142a3565b610be7565b60405161032a9190614c6d565b60405180910390f35b61034d60048036038101906103489190613f51565b610c17565b60405161035a9190614883565b60405180910390f35b61037d600480360381019061037891906141a3565b610dc8565b60405161038a9190614b67565b60405180910390f35b6103ad60048036038101906103a891906142a3565b610de4565b6040516103ba9190614c6d565b60405180910390f35b6103dd60048036038101906103d89190613e0b565b610dfa565b005b6103e7610e97565b005b61040360048036038101906103fe9190614140565b610f1f565b6040516104109190614b67565b60405180910390f35b610433600480360381019061042e91906142a3565b610f3a565b6040516104469796959493929190614b82565b60405180910390f35b610469600480360381019061046491906142a3565b6110a6565b6040516104769190614c6d565b60405180910390f35b610499600480360381019061049491906140f1565b6110bc565b6040516104a69190614b67565b60405180910390f35b6104b76110d7565b6040516104c491906147a6565b60405180910390f35b6104e760048036038101906104e2919061421a565b611101565b6040516104f49190614b67565b60405180910390f35b610517600480360381019061051291906142a3565b611680565b6040516105249190614b4c565b60405180910390f35b610547600480360381019061054291906142a3565b611797565b6040516105579493929190614c28565b60405180910390f35b61057a60048036038101906105759190613e8a565b6117c7565b005b610596600480360381019061059191906142a3565b611948565b6040516105a39190614c6d565b60405180910390f35b6105c660048036038101906105c191906140c8565b61195e565b6040516105d3919061492f565b60405180910390f35b6105f660048036038101906105f191906142cc565b6119cd565b005b610612600480360381019061060d91906142a3565b611a83565b60405161061f9190614b67565b60405180910390f35b610642600480360381019061063d9190614392565b611ad7565b60405161064f9190614c6d565b60405180910390f35b610672600480360381019061066d919061400f565b611ba3565b005b61068e60048036038101906106899190613c81565b611df4565b60405161069b919061492f565b60405180910390f35b6106be60048036038101906106b99190613d7c565b611e88565b005b6106da60048036038101906106d59190613c58565b611f29565b005b6106f660048036038101906106f19190613f02565b612021565b005b610712600480360381019061070d91906142a3565b6120be565b60405161071f9190614c6d565b60405180910390f35b60008073ffffffffffffffffffffffffffffffffffffffff168373ffffffffffffffffffffffffffffffffffffffff161415610799576040517f08c379a0000000000000000000000000000000000000000000000000000000008152600401610790906149ac565b60405180910390fd5b60008083815260200190815260200160002060008473ffffffffffffffffffffffffffffffffffffffff1673ffffffffffffffffffffffffffffffffffffffff16815260200190815260200160002054905092915050565b60007fd9b67a26000000000000000000000000000000000000000000000000000000007bffffffffffffffffffffffffffffffffffffffffffffffffffffffff1916827bffffffffffffffffffffffffffffffffffffffffffffffffffffffff191614806108bc57507f0e89341c000000000000000000000000000000000000000000000000000000007bffffffffffffffffffffffffffffffffffffffffffffffffffffffff1916827bffffffffffffffffffffffffffffffffffffffffffffffffffffffff1916145b806108cc57506108cb826120df565b5b9050919050565b6060600280546108e290615026565b80601f016020809104026020016040519081016040528092919081815260200182805461090e90615026565b801561095b5780601f106109305761010080835404028352916020019161095b565b820191906000526020600020905b81548152906001019060200180831161093e57829003601f168201915b50505050509050919050565b606080600080610975612149565b73ffffffffffffffffffffffffffffffffffffffff166109936110d7565b73ffffffffffffffffffffffffffffffffffffffff16146109e9576040517f08c379a00000000000000000000000000000000000000000000000000000000081526004016109e090614aac565b60405180910390fd5b60006109f6898c8c6110bc565b90506000610a05878a8a6110bc565b90506000610a138383612151565b905060008167ffffffffffffffff811115610a57577f4e487b7100000000000000000000000000000000000000000000000000000000600052604160045260246000fd5b604051908082528060200260200182016040528015610a855781602001602082028036833780820191505090505b50905060008267ffffffffffffffff811115610aca577f4e487b7100000000000000000000000000000000000000000000000000000000600052604160045260246000fd5b604051908082528060200260200182016040528015610af85781602001602082028036833780820191505090505b50905081818686985098509850985050505050509650965096509692505050565b610b21612149565b73ffffffffffffffffffffffffffffffffffffffff168573ffffffffffffffffffffffffffffffffffffffff161480610b675750610b6685610b61612149565b611df4565b5b610ba6576040517f08c379a0000000000000000000000000000000000000000000000000000000008152600401610b9d90614a4c565b60405180910390fd5b610bb38585858585612180565b5050505050565b60006018603c8084610bcc9190614e2e565b610bd69190614e2e565b610be09190615158565b9050919050565b6000600760046201518084610bfc9190614e2e565b610c069190614dd8565b610c109190615158565b9050919050565b60608151835114610c5d576040517f08c379a0000000000000000000000000000000000000000000000000000000008152600401610c5490614aec565b60405180910390fd5b6000835167ffffffffffffffff811115610ca0577f4e487b7100000000000000000000000000000000000000000000000000000000600052604160045260246000fd5b604051908082528060200260200182016040528015610cce5781602001602082028036833780820191505090505b50905060005b8451811015610dbd57610d67858281518110610d19577f4e487b7100000000000000000000000000000000000000000000000000000000600052603260045260246000fd5b6020026020010151858381518110610d5a577f4e487b7100000000000000000000000000000000000000000000000000000000600052603260045260246000fd5b6020026020010151610728565b828281518110610da0577f4e487b7100000000000000000000000000000000000000000000000000000000600052603260045260246000fd5b60200260200101818152505080610db6906150b4565b9050610cd4565b508091505092915050565b6000610dd986868686866000611101565b905095945050505050565b6000610def826124e0565b604001519050919050565b610e02612149565b73ffffffffffffffffffffffffffffffffffffffff168373ffffffffffffffffffffffffffffffffffffffff161480610e485750610e4783610e42612149565b611df4565b5b610e87576040517f08c379a0000000000000000000000000000000000000000000000000000000008152600401610e7e90614a0c565b60405180910390fd5b610e928383836126f1565b505050565b610e9f612149565b73ffffffffffffffffffffffffffffffffffffffff16610ebd6110d7565b73ffffffffffffffffffffffffffffffffffffffff1614610f13576040517f08c379a0000000000000000000000000000000000000000000000000000000008152600401610f0a90614aac565b60405180910390fd5b610f1d60006129ee565b565b6000610f3085858585600080611101565b9050949350505050565b6008602052806000526040600020600091509050806000015490806001018054610f6390615026565b80601f0160208091040260200160405190810160405280929190818152602001828054610f8f90615026565b8015610fdc5780601f10610fb157610100808354040283529160200191610fdc565b820191906000526020600020905b815481529060010190602001808311610fbf57829003601f168201915b5050505050908060020160009054906101000a900460ff169080600301805461100490615026565b80601f016020809104026020016040519081016040528092919081815260200182805461103090615026565b801561107d5780601f106110525761010080835404028352916020019161107d565b820191906000526020600020905b81548152906001019060200180831161106057829003601f168201915b5050505050908060040160009054906101000a900460ff16908060050154908060060154905087565b6000603c826110b59190615158565b9050919050565b60006110ce8484846000806000611101565b90509392505050565b6000600360009054906101000a900473ffffffffffffffffffffffffffffffffffffffff16905090565b6000806107b290505b8761ffff168161ffff161015611165576111238161195e565b1561113f576301e28500826111389190614dd8565b9150611152565b6301e133808261114f9190614dd8565b91505b808061115d90615089565b91505061110a565b61116d6138b0565b601f816000600c81106111a9577f4e487b7100000000000000000000000000000000000000000000000000000000600052603260045260246000fd5b602002019060ff16908160ff16815250506111c38961195e565b1561121a57601d816001600c8110611204577f4e487b7100000000000000000000000000000000000000000000000000000000600052603260045260246000fd5b602002019060ff16908160ff1681525050611268565b601c816001600c8110611256577f4e487b7100000000000000000000000000000000000000000000000000000000600052603260045260246000fd5b602002019060ff16908160ff16815250505b601f816002600c81106112a4577f4e487b7100000000000000000000000000000000000000000000000000000000600052603260045260246000fd5b602002019060ff16908160ff1681525050601e816003600c81106112f1577f4e487b7100000000000000000000000000000000000000000000000000000000600052603260045260246000fd5b602002019060ff16908160ff1681525050601f816004600c811061133e577f4e487b7100000000000000000000000000000000000000000000000000000000600052603260045260246000fd5b602002019060ff16908160ff1681525050601e816005600c811061138b577f4e487b7100000000000000000000000000000000000000000000000000000000600052603260045260246000fd5b602002019060ff16908160ff1681525050601f816006600c81106113d8577f4e487b7100000000000000000000000000000000000000000000000000000000600052603260045260246000fd5b602002019060ff16908160ff1681525050601f816007600c8110611425577f4e487b7100000000000000000000000000000000000000000000000000000000600052603260045260246000fd5b602002019060ff16908160ff1681525050601e816008600c8110611472577f4e487b7100000000000000000000000000000000000000000000000000000000600052603260045260246000fd5b602002019060ff16908160ff1681525050601f816009600c81106114bf577f4e487b7100000000000000000000000000000000000000000000000000000000600052603260045260246000fd5b602002019060ff16908160ff1681525050601e81600a600c811061150c577f4e487b7100000000000000000000000000000000000000000000000000000000600052603260045260246000fd5b602002019060ff16908160ff1681525050601f81600b600c8110611559577f4e487b7100000000000000000000000000000000000000000000000000000000600052603260045260246000fd5b602002019060ff16908160ff1681525050600191505b8760ff168261ffff1610156115fd578060018361158c9190614eb9565b61ffff16600c81106115c7577f4e487b7100000000000000000000000000000000000000000000000000000000600052603260045260246000fd5b602002015160ff16620151806115dd9190614e5f565b836115e89190614dd8565b925081806115f590615089565b92505061156f565b60018761160a9190614f21565b60ff166201518061161b9190614e5f565b836116269190614dd8565b92508560ff16610e106116399190614e5f565b836116449190614dd8565b92508460ff16603c6116569190614e5f565b836116619190614dd8565b92508360ff16836116729190614dd8565b925050509695505050505050565b600080600090506000806301e133808561169a9190614e2e565b6107b261ffff166116ab9190614dd8565b91506116bc6107b261ffff16611a83565b6116c98361ffff16611a83565b6116d39190614eed565b9050806301e285006116e59190614e5f565b836116f09190614dd8565b9250806107b2836117019190614eb9565b61ffff1661170f9190614eed565b6301e1338061171e9190614e5f565b836117299190614dd8565b92505b8483111561178c576117496001836117449190614eb9565b61195e565b15611765576301e285008361175e9190614eed565b9250611778565b6301e13380836117759190614eed565b92505b6001826117859190614eb9565b915061172c565b819350505050919050565b600a6020528060005260406000206000915090508060000154908060010154908060020154908060030154905084565b8173ffffffffffffffffffffffffffffffffffffffff166117e6612149565b73ffffffffffffffffffffffffffffffffffffffff16141561183d576040517f08c379a000000000000000000000000000000000000000000000000000000000815260040161183490614acc565b60405180910390fd5b806001600061184a612149565b73ffffffffffffffffffffffffffffffffffffffff1673ffffffffffffffffffffffffffffffffffffffff16815260200190815260200160002060008473ffffffffffffffffffffffffffffffffffffffff1673ffffffffffffffffffffffffffffffffffffffff16815260200190815260200160002060006101000a81548160ff0219169083151502179055508173ffffffffffffffffffffffffffffffffffffffff166118f7612149565b73ffffffffffffffffffffffffffffffffffffffff167f17307eab39ab6107e8899845ad3d59bd9653f200f220920489ca2b5937696c318360405161193c919061492f565b60405180910390a35050565b6000611953826124e0565b602001519050919050565b60008060048361196e9190615127565b61ffff161461198057600090506119c8565b600060648361198f9190615127565b61ffff16146119a157600190506119c8565b6000610190836119b19190615127565b61ffff16146119c357600090506119c8565b600190505b919050565b6119d5612149565b73ffffffffffffffffffffffffffffffffffffffff166119f36110d7565b73ffffffffffffffffffffffffffffffffffffffff1614611a49576040517f08c379a0000000000000000000000000000000000000000000000000000000008152600401611a4090614aac565b60405180910390fd5b600080600080611a5d8a8a8a8a8a8a610967565b9350935093509350611a748d8d8d87878787612ab4565b50505050505050505050505050565b6000600182611a929190614eed565b915061019082611aa29190614e2e565b606483611aaf9190614e2e565b600484611abc9190614e2e565b611ac69190614eed565b611ad09190614dd8565b9050919050565b600060018360ff161480611aee575060038360ff16145b80611afc575060058360ff16145b80611b0a575060078360ff16145b80611b18575060088360ff16145b80611b265750600a8360ff16145b80611b345750600c8360ff16145b15611b4257601f9050611b9d565b60048360ff161480611b57575060068360ff16145b80611b65575060098360ff16145b80611b735750600b8360ff16145b15611b8157601e9050611b9d565b611b8a8261195e565b15611b9857601d9050611b9d565b601c90505b92915050565b611bab612149565b73ffffffffffffffffffffffffffffffffffffffff16611bc96110d7565b73ffffffffffffffffffffffffffffffffffffffff1614611c1f576040517f08c379a0000000000000000000000000000000000000000000000000000000008152600401611c1690614aac565b60405180910390fd5b6000611c2b6007612cc7565b905060006040518060e001604052808381526020018981526020018860ff16815260200187815260200186151581526020018581526020018481525090506006819080600181540180825580915050600190039060005260206000209060070201600090919091909150600082015181600001556020820151816001019080519060200190611cbb9291906138d3565b5060408201518160020160006101000a81548160ff021916908360ff1602179055506060820151816003019080519060200190611cf99291906138d3565b5060808201518160040160006101000a81548160ff02191690831515021790555060a0820151816005015560c0820151816006015550508060086000848152602001908152602001600020600082015181600001556020820151816001019080519060200190611d6a9291906138d3565b5060408201518160020160006101000a81548160ff021916908360ff1602179055506060820151816003019080519060200190611da89291906138d3565b5060808201518160040160006101000a81548160ff02191690831515021790555060a0820151816005015560c08201518160060155905050611dea6007612cd5565b5050505050505050565b6000600160008473ffffffffffffffffffffffffffffffffffffffff1673ffffffffffffffffffffffffffffffffffffffff16815260200190815260200160002060008373ffffffffffffffffffffffffffffffffffffffff1673ffffffffffffffffffffffffffffffffffffffff16815260200190815260200160002060009054906101000a900460ff16905092915050565b611e90612149565b73ffffffffffffffffffffffffffffffffffffffff168573ffffffffffffffffffffffffffffffffffffffff161480611ed65750611ed585611ed0612149565b611df4565b5b611f15576040517f08c379a0000000000000000000000000000000000000000000000000000000008152600401611f0c90614a0c565b60405180910390fd5b611f228585858585612ceb565b5050505050565b611f31612149565b73ffffffffffffffffffffffffffffffffffffffff16611f4f6110d7565b73ffffffffffffffffffffffffffffffffffffffff1614611fa5576040517f08c379a0000000000000000000000000000000000000000000000000000000008152600401611f9c90614aac565b60405180910390fd5b600073ffffffffffffffffffffffffffffffffffffffff168173ffffffffffffffffffffffffffffffffffffffff161415612015576040517f08c379a000000000000000000000000000000000000000000000000000000000815260040161200c906149cc565b60405180910390fd5b61201e816129ee565b50565b612029612149565b73ffffffffffffffffffffffffffffffffffffffff168373ffffffffffffffffffffffffffffffffffffffff16148061206f575061206e83612069612149565b611df4565b5b6120ae576040517f08c379a00000000000000000000000000000000000000000000000000000000081526004016120a590614a0c565b60405180910390fd5b6120b9838383612f6d565b505050565b6000603c80836120ce9190614e2e565b6120d89190615158565b9050919050565b60007f01ffc9a7000000000000000000000000000000000000000000000000000000007bffffffffffffffffffffffffffffffffffffffffffffffffffffffff1916827bffffffffffffffffffffffffffffffffffffffffffffffffffffffff1916149050919050565b600033905090565b60008083836121609190614eed565b9050600062015180826121739190614e2e565b9050809250505092915050565b81518351146121c4576040517f08c379a00000000000000000000000000000000000000000000000000000000081526004016121bb90614b0c565b60405180910390fd5b600073ffffffffffffffffffffffffffffffffffffffff168473ffffffffffffffffffffffffffffffffffffffff161415612234576040517f08c379a000000000000000000000000000000000000000000000000000000000815260040161222b90614a2c565b60405180910390fd5b600061223e612149565b905061224e81878787878761318a565b60005b845181101561244b576000858281518110612295577f4e487b7100000000000000000000000000000000000000000000000000000000600052603260045260246000fd5b6020026020010151905060008583815181106122da577f4e487b7100000000000000000000000000000000000000000000000000000000600052603260045260246000fd5b60200260200101519050600080600084815260200190815260200160002060008b73ffffffffffffffffffffffffffffffffffffffff1673ffffffffffffffffffffffffffffffffffffffff1681526020019081526020016000205490508181101561237b576040517f08c379a000000000000000000000000000000000000000000000000000000000815260040161237290614a8c565b60405180910390fd5b81810360008085815260200190815260200160002060008c73ffffffffffffffffffffffffffffffffffffffff1673ffffffffffffffffffffffffffffffffffffffff168152602001908152602001600020819055508160008085815260200190815260200160002060008b73ffffffffffffffffffffffffffffffffffffffff1673ffffffffffffffffffffffffffffffffffffffff16815260200190815260200160002060008282546124309190614dd8565b9250508190555050505080612444906150b4565b9050612251565b508473ffffffffffffffffffffffffffffffffffffffff168673ffffffffffffffffffffffffffffffffffffffff168273ffffffffffffffffffffffffffffffffffffffff167f4a39dc06d4c0dbc64b70af90fd698a233a518aa5d07e595d983b8c0526c8f7fb87876040516124c29291906148a5565b60405180910390a46124d8818787878787613192565b505050505050565b6124e8613959565b600080806124f585611680565b846000019061ffff16908161ffff16815250506125176107b261ffff16611a83565b612528856000015161ffff16611a83565b6125329190614eed565b9150816301e285006125449190614e5f565b8361254f9190614dd8565b9250816107b285600001516125649190614eb9565b61ffff166125729190614eed565b6301e133806125819190614e5f565b8361258c9190614dd8565b92506000600191505b600c8260ff161161260c576125ae828660000151611ad7565b60ff16620151806125bf9190614e5f565b90508584826125ce9190614dd8565b11156125eb5781856020019060ff16908160ff168152505061260c565b80846125f79190614dd8565b93508180612604906150fd565b925050612595565b600191505b61262385602001518660000151611ad7565b60ff168260ff16116126805785846201518061263f9190614dd8565b111561265c5781856040019060ff16908160ff1681525050612680565b620151808461266b9190614dd8565b93508180612678906150fd565b925050612611565b61268986610bba565b856060019060ff16908160ff16815250506126a3866120be565b856080019060ff16908160ff16815250506126bd866110a6565b8560a0019060ff16908160ff16815250506126d786610be7565b8560c0019060ff16908160ff168152505050505050919050565b600073ffffffffffffffffffffffffffffffffffffffff168373ffffffffffffffffffffffffffffffffffffffff161415612761576040517f08c379a000000000000000000000000000000000000000000000000000000000815260040161275890614a6c565b60405180910390fd5b80518251146127a5576040517f08c379a000000000000000000000000000000000000000000000000000000000815260040161279c90614b0c565b60405180910390fd5b60006127af612149565b90506127cf8185600086866040518060200160405280600081525061318a565b60005b8351811015612968576000848281518110612816577f4e487b7100000000000000000000000000000000000000000000000000000000600052603260045260246000fd5b60200260200101519050600084838151811061285b577f4e487b7100000000000000000000000000000000000000000000000000000000600052603260045260246000fd5b60200260200101519050600080600084815260200190815260200160002060008973ffffffffffffffffffffffffffffffffffffffff1673ffffffffffffffffffffffffffffffffffffffff168152602001908152602001600020549050818110156128fc576040517f08c379a00000000000000000000000000000000000000000000000000000000081526004016128f3906149ec565b60405180910390fd5b81810360008085815260200190815260200160002060008a73ffffffffffffffffffffffffffffffffffffffff1673ffffffffffffffffffffffffffffffffffffffff168152602001908152602001600020819055505050508080612960906150b4565b9150506127d2565b50600073ffffffffffffffffffffffffffffffffffffffff168473ffffffffffffffffffffffffffffffffffffffff168273ffffffffffffffffffffffffffffffffffffffff167f4a39dc06d4c0dbc64b70af90fd698a233a518aa5d07e595d983b8c0526c8f7fb86866040516129e09291906148a5565b60405180910390a450505050565b6000600360009054906101000a900473ffffffffffffffffffffffffffffffffffffffff16905081600360006101000a81548173ffffffffffffffffffffffffffffffffffffffff021916908373ffffffffffffffffffffffffffffffffffffffff1602179055508173ffffffffffffffffffffffffffffffffffffffff168173ffffffffffffffffffffffffffffffffffffffff167f8be0079c531659141344cd1fd0a4f28419497f9722a3daafe3b4186f6b6457e060405160405180910390a35050565b612abc612149565b73ffffffffffffffffffffffffffffffffffffffff16612ada6110d7565b73ffffffffffffffffffffffffffffffffffffffff1614612b30576040517f08c379a0000000000000000000000000000000000000000000000000000000008152600401612b2790614aac565b60405180910390fd5b60008290505b81811015612c76576000612b4a6009612cc7565b90506000612b58600b612cc7565b9050600060405180608001604052808481526020018c81526020018581526020018a815250905080600a60008581526020019081526020016000206000820151816000015560208201518160010155604082015181600201556060820151816003015590505082888381518110612bf8577f4e487b7100000000000000000000000000000000000000000000000000000000600052603260045260246000fd5b60200260200101818152505089878381518110612c3e577f4e487b7100000000000000000000000000000000000000000000000000000000600052603260045260246000fd5b602002602001018181525050612c546009612cd5565b612c5e600b612cd5565b5050506201518081612c709190614dd8565b50612b36565b50612cb4600460009054906101000a900473ffffffffffffffffffffffffffffffffffffffff16858560405180602001604052806000815250613379565b612cbe600b6135e3565b50505050505050565b600081600001549050919050565b6001816000016000828254019250508190555050565b600073ffffffffffffffffffffffffffffffffffffffff168473ffffffffffffffffffffffffffffffffffffffff161415612d5b576040517f08c379a0000000000000000000000000000000000000000000000000000000008152600401612d5290614a2c565b60405180910390fd5b6000612d65612149565b9050612d85818787612d76886135f0565b612d7f886135f0565b8761318a565b600080600086815260200190815260200160002060008873ffffffffffffffffffffffffffffffffffffffff1673ffffffffffffffffffffffffffffffffffffffff16815260200190815260200160002054905083811015612e1c576040517f08c379a0000000000000000000000000000000000000000000000000000000008152600401612e1390614a8c565b60405180910390fd5b83810360008087815260200190815260200160002060008973ffffffffffffffffffffffffffffffffffffffff1673ffffffffffffffffffffffffffffffffffffffff168152602001908152602001600020819055508360008087815260200190815260200160002060008873ffffffffffffffffffffffffffffffffffffffff1673ffffffffffffffffffffffffffffffffffffffff1681526020019081526020016000206000828254612ed19190614dd8565b925050819055508573ffffffffffffffffffffffffffffffffffffffff168773ffffffffffffffffffffffffffffffffffffffff168373ffffffffffffffffffffffffffffffffffffffff167fc3d58168c5ae7397731d063d5bbf3d657854427343f4c083240f7aacaa2d0f628888604051612f4e929190614bff565b60405180910390a4612f648288888888886136b6565b50505050505050565b600073ffffffffffffffffffffffffffffffffffffffff168373ffffffffffffffffffffffffffffffffffffffff161415612fdd576040517f08c379a0000000000000000000000000000000000000000000000000000000008152600401612fd490614a6c565b60405180910390fd5b6000612fe7612149565b905061301781856000612ff9876135f0565b613002876135f0565b6040518060200160405280600081525061318a565b600080600085815260200190815260200160002060008673ffffffffffffffffffffffffffffffffffffffff1673ffffffffffffffffffffffffffffffffffffffff168152602001908152602001600020549050828110156130ae576040517f08c379a00000000000000000000000000000000000000000000000000000000081526004016130a5906149ec565b60405180910390fd5b82810360008086815260200190815260200160002060008773ffffffffffffffffffffffffffffffffffffffff1673ffffffffffffffffffffffffffffffffffffffff16815260200190815260200160002081905550600073ffffffffffffffffffffffffffffffffffffffff168573ffffffffffffffffffffffffffffffffffffffff168373ffffffffffffffffffffffffffffffffffffffff167fc3d58168c5ae7397731d063d5bbf3d657854427343f4c083240f7aacaa2d0f62878760405161317b929190614bff565b60405180910390a45050505050565b505050505050565b6131b18473ffffffffffffffffffffffffffffffffffffffff1661389d565b15613371578373ffffffffffffffffffffffffffffffffffffffff1663bc197c8187878686866040518663ffffffff1660e01b81526004016131f79594939291906147c1565b602060405180830381600087803b15801561321157600080fd5b505af192505050801561324257506040513d601f19601f8201168201806040525081019061323f9190613fe6565b60015b6132e85761324e615245565b806308c379a014156132ab5750613263615700565b8061326e57506132ad565b806040517f08c379a00000000000000000000000000000000000000000000000000000000081526004016132a2919061494a565b60405180910390fd5b505b6040517f08c379a00000000000000000000000000000000000000000000000000000000081526004016132df9061496c565b60405180910390fd5b63bc197c8160e01b7bffffffffffffffffffffffffffffffffffffffffffffffffffffffff1916817bffffffffffffffffffffffffffffffffffffffffffffffffffffffff19161461336f576040517f08c379a00000000000000000000000000000000000000000000000000000000081526004016133669061498c565b60405180910390fd5b505b505050505050565b600073ffffffffffffffffffffffffffffffffffffffff168473ffffffffffffffffffffffffffffffffffffffff1614156133e9576040517f08c379a00000000000000000000000000000000000000000000000000000000081526004016133e090614b2c565b60405180910390fd5b815183511461342d576040517f08c379a000000000000000000000000000000000000000000000000000000000815260040161342490614b0c565b60405180910390fd5b6000613437612149565b90506134488160008787878761318a565b60005b845181101561354d5783818151811061348d577f4e487b7100000000000000000000000000000000000000000000000000000000600052603260045260246000fd5b60200260200101516000808784815181106134d1577f4e487b7100000000000000000000000000000000000000000000000000000000600052603260045260246000fd5b6020026020010151815260200190815260200160002060008873ffffffffffffffffffffffffffffffffffffffff1673ffffffffffffffffffffffffffffffffffffffff16815260200190815260200160002060008282546135339190614dd8565b925050819055508080613545906150b4565b91505061344b565b508473ffffffffffffffffffffffffffffffffffffffff16600073ffffffffffffffffffffffffffffffffffffffff168273ffffffffffffffffffffffffffffffffffffffff167f4a39dc06d4c0dbc64b70af90fd698a233a518aa5d07e595d983b8c0526c8f7fb87876040516135c59291906148a5565b60405180910390a46135dc81600087878787613192565b5050505050565b6000816000018190555050565b60606000600167ffffffffffffffff811115613635577f4e487b7100000000000000000000000000000000000000000000000000000000600052604160045260246000fd5b6040519080825280602002602001820160405280156136635781602001602082028036833780820191505090505b50905082816000815181106136a1577f4e487b7100000000000000000000000000000000000000000000000000000000600052603260045260246000fd5b60200260200101818152505080915050919050565b6136d58473ffffffffffffffffffffffffffffffffffffffff1661389d565b15613895578373ffffffffffffffffffffffffffffffffffffffff1663f23a6e6187878686866040518663ffffffff1660e01b815260040161371b959493929190614829565b602060405180830381600087803b15801561373557600080fd5b505af192505050801561376657506040513d601f19601f820116820180604052508101906137639190613fe6565b60015b61380c57613772615245565b806308c379a014156137cf5750613787615700565b8061379257506137d1565b806040517f08c379a00000000000000000000000000000000000000000000000000000000081526004016137c6919061494a565b60405180910390fd5b505b6040517f08c379a00000000000000000000000000000000000000000000000000000000081526004016138039061496c565b60405180910390fd5b63f23a6e6160e01b7bffffffffffffffffffffffffffffffffffffffffffffffffffffffff1916817bffffffffffffffffffffffffffffffffffffffffffffffffffffffff191614613893576040517f08c379a000000000000000000000000000000000000000000000000000000000815260040161388a9061498c565b60405180910390fd5b505b505050505050565b600080823b905060008111915050919050565b604051806101800160405280600c90602082028036833780820191505090505090565b8280546138df90615026565b90600052602060002090601f0160209004810192826139015760008555613948565b82601f1061391a57805160ff1916838001178555613948565b82800160010185558215613948579182015b8281111561394757825182559160200191906001019061392c565b5b50905061395591906139ac565b5090565b6040518060e00160405280600061ffff168152602001600060ff168152602001600060ff168152602001600060ff168152602001600060ff168152602001600060ff168152602001600060ff1681525090565b5b808211156139c55760008160009055506001016139ad565b5090565b60006139dc6139d784614cad565b614c88565b905080838252602082019050828560208602820111156139fb57600080fd5b60005b85811015613a2b5781613a118882613b1d565b8452602084019350602083019250506001810190506139fe565b5050509392505050565b6000613a48613a4384614cd9565b614c88565b90508083825260208201905082856020860282011115613a6757600080fd5b60005b85811015613a975781613a7d8882613c2e565b845260208401935060208301925050600181019050613a6a565b5050509392505050565b6000613ab4613aaf84614d05565b614c88565b905082815260208101848484011115613acc57600080fd5b613ad7848285614fe4565b509392505050565b6000613af2613aed84614d36565b614c88565b905082815260208101848484011115613b0a57600080fd5b613b15848285614fe4565b509392505050565b600081359050613b2c81615796565b92915050565b600082601f830112613b4357600080fd5b8135613b538482602086016139c9565b91505092915050565b600082601f830112613b6d57600080fd5b8135613b7d848260208601613a35565b91505092915050565b600081359050613b95816157ad565b92915050565b600081359050613baa816157c4565b92915050565b600081519050613bbf816157c4565b92915050565b600082601f830112613bd657600080fd5b8135613be6848260208601613aa1565b91505092915050565b600082601f830112613c0057600080fd5b8135613c10848260208601613adf565b91505092915050565b600081359050613c28816157db565b92915050565b600081359050613c3d816157f2565b92915050565b600081359050613c5281615809565b92915050565b600060208284031215613c6a57600080fd5b6000613c7884828501613b1d565b91505092915050565b60008060408385031215613c9457600080fd5b6000613ca285828601613b1d565b9250506020613cb385828601613b1d565b9150509250929050565b600080600080600060a08688031215613cd557600080fd5b6000613ce388828901613b1d565b9550506020613cf488828901613b1d565b945050604086013567ffffffffffffffff811115613d1157600080fd5b613d1d88828901613b5c565b935050606086013567ffffffffffffffff811115613d3a57600080fd5b613d4688828901613b5c565b925050608086013567ffffffffffffffff811115613d6357600080fd5b613d6f88828901613bc5565b9150509295509295909350565b600080600080600060a08688031215613d9457600080fd5b6000613da288828901613b1d565b9550506020613db388828901613b1d565b9450506040613dc488828901613c2e565b9350506060613dd588828901613c2e565b925050608086013567ffffffffffffffff811115613df257600080fd5b613dfe88828901613bc5565b9150509295509295909350565b600080600060608486031215613e2057600080fd5b6000613e2e86828701613b1d565b935050602084013567ffffffffffffffff811115613e4b57600080fd5b613e5786828701613b5c565b925050604084013567ffffffffffffffff811115613e7457600080fd5b613e8086828701613b5c565b9150509250925092565b60008060408385031215613e9d57600080fd5b6000613eab85828601613b1d565b9250506020613ebc85828601613b86565b9150509250929050565b60008060408385031215613ed957600080fd5b6000613ee785828601613b1d565b9250506020613ef885828601613c2e565b9150509250929050565b600080600060608486031215613f1757600080fd5b6000613f2586828701613b1d565b9350506020613f3686828701613c2e565b9250506040613f4786828701613c2e565b9150509250925092565b60008060408385031215613f6457600080fd5b600083013567ffffffffffffffff811115613f7e57600080fd5b613f8a85828601613b32565b925050602083013567ffffffffffffffff811115613fa757600080fd5b613fb385828601613b5c565b9150509250929050565b600060208284031215613fcf57600080fd5b6000613fdd84828501613b9b565b91505092915050565b600060208284031215613ff857600080fd5b600061400684828501613bb0565b91505092915050565b60008060008060008060c0878903121561402857600080fd5b600087013567ffffffffffffffff81111561404257600080fd5b61404e89828a01613bef565b965050602061405f89828a01613c43565b955050604087013567ffffffffffffffff81111561407c57600080fd5b61408889828a01613bef565b945050606061409989828a01613b86565b93505060806140aa89828a01613c2e565b92505060a06140bb89828a01613c2e565b9150509295509295509295565b6000602082840312156140da57600080fd5b60006140e884828501613c19565b91505092915050565b60008060006060848603121561410657600080fd5b600061411486828701613c19565b935050602061412586828701613c43565b925050604061413686828701613c43565b9150509250925092565b6000806000806080858703121561415657600080fd5b600061416487828801613c19565b945050602061417587828801613c43565b935050604061418687828801613c43565b925050606061419787828801613c43565b91505092959194509250565b600080600080600060a086880312156141bb57600080fd5b60006141c988828901613c19565b95505060206141da88828901613c43565b94505060406141eb88828901613c43565b93505060606141fc88828901613c43565b925050608061420d88828901613c43565b9150509295509295909350565b60008060008060008060c0878903121561423357600080fd5b600061424189828a01613c19565b965050602061425289828a01613c43565b955050604061426389828a01613c43565b945050606061427489828a01613c43565b935050608061428589828a01613c43565b92505060a061429689828a01613c43565b9150509295509295509295565b6000602082840312156142b557600080fd5b60006142c384828501613c2e565b91505092915050565b60008060008060008060008060006101208a8c0312156142eb57600080fd5b60006142f98c828d01613c2e565b995050602061430a8c828d01613c2e565b985050604061431b8c828d01613c2e565b975050606061432c8c828d01613c43565b965050608061433d8c828d01613c43565b95505060a061434e8c828d01613c19565b94505060c061435f8c828d01613c43565b93505060e06143708c828d01613c43565b9250506101006143828c828d01613c19565b9150509295985092959850929598565b600080604083850312156143a557600080fd5b60006143b385828601613c43565b92505060206143c485828601613c19565b9150509250929050565b60008060008060008060c087890312156143e757600080fd5b60006143f589828a01613c43565b965050602061440689828a01613c43565b955050604061441789828a01613c19565b945050606061442889828a01613c43565b935050608061443989828a01613c43565b92505060a061444a89828a01613c19565b9150509295509295509295565b60006144638383614779565b60208301905092915050565b61447881614f55565b82525050565b600061448982614d77565b6144938185614da5565b935061449e83614d67565b8060005b838110156144cf5781516144b68882614457565b97506144c183614d98565b9250506001810190506144a2565b5085935050505092915050565b6144e581614f67565b82525050565b60006144f682614d82565b6145008185614db6565b9350614510818560208601614ff3565b61451981615267565b840191505092915050565b600061452f82614d8d565b6145398185614dc7565b9350614549818560208601614ff3565b61455281615267565b840191505092915050565b600061456a603483614dc7565b915061457582615285565b604082019050919050565b600061458d602883614dc7565b9150614598826152d4565b604082019050919050565b60006145b0602b83614dc7565b91506145bb82615323565b604082019050919050565b60006145d3602683614dc7565b91506145de82615372565b604082019050919050565b60006145f6602483614dc7565b9150614601826153c1565b604082019050919050565b6000614619602983614dc7565b915061462482615410565b604082019050919050565b600061463c602583614dc7565b91506146478261545f565b604082019050919050565b600061465f603283614dc7565b915061466a826154ae565b604082019050919050565b6000614682602383614dc7565b915061468d826154fd565b604082019050919050565b60006146a5602a83614dc7565b91506146b08261554c565b604082019050919050565b60006146c8602083614dc7565b91506146d38261559b565b602082019050919050565b60006146eb602983614dc7565b91506146f6826155c4565b604082019050919050565b600061470e602983614dc7565b915061471982615613565b604082019050919050565b6000614731602883614dc7565b915061473c82615662565b604082019050919050565b6000614754602183614dc7565b915061475f826156b1565b604082019050919050565b61477381614f9f565b82525050565b61478281614fcd565b82525050565b61479181614fcd565b82525050565b6147a081614fd7565b82525050565b60006020820190506147bb600083018461446f565b92915050565b600060a0820190506147d6600083018861446f565b6147e3602083018761446f565b81810360408301526147f5818661447e565b90508181036060830152614809818561447e565b9050818103608083015261481d81846144eb565b90509695505050505050565b600060a08201905061483e600083018861446f565b61484b602083018761446f565b6148586040830186614788565b6148656060830185614788565b818103608083015261487781846144eb565b90509695505050505050565b6000602082019050818103600083015261489d818461447e565b905092915050565b600060408201905081810360008301526148bf818561447e565b905081810360208301526148d3818461447e565b90509392505050565b600060808201905081810360008301526148f6818761447e565b9050818103602083015261490a818661447e565b90506149196040830185614788565b6149266060830184614788565b95945050505050565b600060208201905061494460008301846144dc565b92915050565b600060208201905081810360008301526149648184614524565b905092915050565b600060208201905081810360008301526149858161455d565b9050919050565b600060208201905081810360008301526149a581614580565b9050919050565b600060208201905081810360008301526149c5816145a3565b9050919050565b600060208201905081810360008301526149e5816145c6565b9050919050565b60006020820190508181036000830152614a05816145e9565b9050919050565b60006020820190508181036000830152614a258161460c565b9050919050565b60006020820190508181036000830152614a458161462f565b9050919050565b60006020820190508181036000830152614a6581614652565b9050919050565b60006020820190508181036000830152614a8581614675565b9050919050565b60006020820190508181036000830152614aa581614698565b9050919050565b60006020820190508181036000830152614ac5816146bb565b9050919050565b60006020820190508181036000830152614ae5816146de565b9050919050565b60006020820190508181036000830152614b0581614701565b9050919050565b60006020820190508181036000830152614b2581614724565b9050919050565b60006020820190508181036000830152614b4581614747565b9050919050565b6000602082019050614b61600083018461476a565b92915050565b6000602082019050614b7c6000830184614788565b92915050565b600060e082019050614b97600083018a614788565b8181036020830152614ba98189614524565b9050614bb86040830188614797565b8181036060830152614bca8187614524565b9050614bd960808301866144dc565b614be660a0830185614788565b614bf360c0830184614788565b98975050505050505050565b6000604082019050614c146000830185614788565b614c216020830184614788565b9392505050565b6000608082019050614c3d6000830187614788565b614c4a6020830186614788565b614c576040830185614788565b614c646060830184614788565b95945050505050565b6000602082019050614c826000830184614797565b92915050565b6000614c92614ca3565b9050614c9e8282615058565b919050565b6000604051905090565b600067ffffffffffffffff821115614cc857614cc7615216565b5b602082029050602081019050919050565b600067ffffffffffffffff821115614cf457614cf3615216565b5b602082029050602081019050919050565b600067ffffffffffffffff821115614d2057614d1f615216565b5b614d2982615267565b9050602081019050919050565b600067ffffffffffffffff821115614d5157614d50615216565b5b614d5a82615267565b9050602081019050919050565b6000819050602082019050919050565b600081519050919050565b600081519050919050565b600081519050919050565b6000602082019050919050565b600082825260208201905092915050565b600082825260208201905092915050565b600082825260208201905092915050565b6000614de382614fcd565b9150614dee83614fcd565b9250827fffffffffffffffffffffffffffffffffffffffffffffffffffffffffffffffff03821115614e2357614e22615189565b5b828201905092915050565b6000614e3982614fcd565b9150614e4483614fcd565b925082614e5457614e536151b8565b5b828204905092915050565b6000614e6a82614fcd565b9150614e7583614fcd565b9250817fffffffffffffffffffffffffffffffffffffffffffffffffffffffffffffffff0483118215151615614eae57614ead615189565b5b828202905092915050565b6000614ec482614f9f565b9150614ecf83614f9f565b925082821015614ee257614ee1615189565b5b828203905092915050565b6000614ef882614fcd565b9150614f0383614fcd565b925082821015614f1657614f15615189565b5b828203905092915050565b6000614f2c82614fd7565b9150614f3783614fd7565b925082821015614f4a57614f49615189565b5b828203905092915050565b6000614f6082614fad565b9050919050565b60008115159050919050565b60007fffffffff0000000000000000000000000000000000000000000000000000000082169050919050565b600061ffff82169050919050565b600073ffffffffffffffffffffffffffffffffffffffff82169050919050565b6000819050919050565b600060ff82169050919050565b82818337600083830152505050565b60005b83811015615011578082015181840152602081019050614ff6565b83811115615020576000848401525b50505050565b6000600282049050600182168061503e57607f821691505b60208210811415615052576150516151e7565b5b50919050565b61506182615267565b810181811067ffffffffffffffff821117156150805761507f615216565b5b80604052505050565b600061509482614f9f565b915061ffff8214156150a9576150a8615189565b5b600182019050919050565b60006150bf82614fcd565b91507fffffffffffffffffffffffffffffffffffffffffffffffffffffffffffffffff8214156150f2576150f1615189565b5b600182019050919050565b600061510882614fd7565b915060ff82141561511c5761511b615189565b5b600182019050919050565b600061513282614f9f565b915061513d83614f9f565b92508261514d5761514c6151b8565b5b828206905092915050565b600061516382614fcd565b915061516e83614fcd565b92508261517e5761517d6151b8565b5b828206905092915050565b7f4e487b7100000000000000000000000000000000000000000000000000000000600052601160045260246000fd5b7f4e487b7100000000000000000000000000000000000000000000000000000000600052601260045260246000fd5b7f4e487b7100000000000000000000000000000000000000000000000000000000600052602260045260246000fd5b7f4e487b7100000000000000000000000000000000000000000000000000000000600052604160045260246000fd5b600060033d11156152645760046000803e615261600051615278565b90505b90565b6000601f19601f8301169050919050565b60008160e01c9050919050565b7f455243313135353a207472616e7366657220746f206e6f6e204552433131353560008201527f526563656976657220696d706c656d656e746572000000000000000000000000602082015250565b7f455243313135353a204552433131353552656365697665722072656a6563746560008201527f6420746f6b656e73000000000000000000000000000000000000000000000000602082015250565b7f455243313135353a2062616c616e636520717565727920666f7220746865207a60008201527f65726f2061646472657373000000000000000000000000000000000000000000602082015250565b7f4f776e61626c653a206e6577206f776e657220697320746865207a65726f206160008201527f6464726573730000000000000000000000000000000000000000000000000000602082015250565b7f455243313135353a206275726e20616d6f756e7420657863656564732062616c60008201527f616e636500000000000000000000000000000000000000000000000000000000602082015250565b7f455243313135353a2063616c6c6572206973206e6f74206f776e6572206e6f7260008201527f20617070726f7665640000000000000000000000000000000000000000000000602082015250565b7f455243313135353a207472616e7366657220746f20746865207a65726f20616460008201527f6472657373000000000000000000000000000000000000000000000000000000602082015250565b7f455243313135353a207472616e736665722063616c6c6572206973206e6f742060008201527f6f776e6572206e6f7220617070726f7665640000000000000000000000000000602082015250565b7f455243313135353a206275726e2066726f6d20746865207a65726f206164647260008201527f6573730000000000000000000000000000000000000000000000000000000000602082015250565b7f455243313135353a20696e73756666696369656e742062616c616e636520666f60008201527f72207472616e7366657200000000000000000000000000000000000000000000602082015250565b7f4f776e61626c653a2063616c6c6572206973206e6f7420746865206f776e6572600082015250565b7f455243313135353a2073657474696e6720617070726f76616c2073746174757360008201527f20666f722073656c660000000000000000000000000000000000000000000000602082015250565b7f455243313135353a206163636f756e747320616e6420696473206c656e67746860008201527f206d69736d617463680000000000000000000000000000000000000000000000602082015250565b7f455243313135353a2069647320616e6420616d6f756e7473206c656e6774682060008201527f6d69736d61746368000000000000000000000000000000000000000000000000602082015250565b7f455243313135353a206d696e7420746f20746865207a65726f2061646472657360008201527f7300000000000000000000000000000000000000000000000000000000000000602082015250565b600060443d101561571057615793565b615718614ca3565b60043d036004823e80513d602482011167ffffffffffffffff82111715615740575050615793565b808201805167ffffffffffffffff81111561575e5750505050615793565b80602083010160043d03850181111561577b575050505050615793565b61578a82602001850186615058565b82955050505050505b90565b61579f81614f55565b81146157aa57600080fd5b50565b6157b681614f67565b81146157c157600080fd5b50565b6157cd81614f73565b81146157d857600080fd5b50565b6157e481614f9f565b81146157ef57600080fd5b50565b6157fb81614fcd565b811461580657600080fd5b50565b61581281614fd7565b811461581d57600080fd5b5056fea2646970667358221220059d6afb3515d59e55ad53f34251a1a1c66fd05709fe0db38f61abaa929cea8c64736f6c63430008020033",
  "immutableReferences": {},
  "source": "// SPDX-License-Identifier: MIT\npragma solidity ^0.8.2;\n\nimport \"@openzeppelin/contracts/token/ERC1155/ERC1155.sol\";\nimport \"@openzeppelin/contracts/access/Ownable.sol\";\nimport \"@openzeppelin/contracts/token/ERC1155/extensions/ERC1155Burnable.sol\";\nimport \"@openzeppelin/contracts/utils/Counters.sol\";\nimport \"./DateTime.sol\";\n\ncontract Hotel is DateTime, ERC1155, Ownable, ERC1155Burnable {\n    using Counters for Counters.Counter;\n\n  address private manager;\n  string hotelName;\n\n    constructor(address owner, string memory name) ERC1155(\",m,\") {\n        manager = owner; //sets the manager to the address passed into the constructor\n        hotelName = name;\n  }\n\n  RoomType[] roomTypes; //haven't used yet\n  Counters.Counter private roomTypeCounter;//creates roomTypeIds\n  mapping(uint => RoomType) public idToRoomType;//mapping roomTypeId to RoomType struct\n  Counters.Counter private roomNightCounter;//creates RoomNightIds (tokenIds)\n  mapping(uint => RoomNight) public idToRoomNight;//mapping tokenId to RoomNight sruct\n\n  Counters.Counter private index;\n\n   struct RoomType {\n      uint roomTypeId;\n      string roomName;\n      uint8 maxOccupancy;\n      string description;//not sure if this needs to be on chain\n      bool allInclusive;//haven't used this yet.  Will need this for pricing\n      uint cxlPolicy;//in days prior to check-in\n      uint commission;//percentage of price\n  }\n\n  struct RoomNight {\n    uint tokenId;//tokenId for the NFTs\n    uint roomTypeId;//can pull room type info from this\n    uint date;\n    uint price;//currently per room, not per person\n}\n\n  //create a new RoomType struct, add it to the mapping (and array?), increment counter\n  function createRoomType(\n    string memory _roomName,\n    uint8 _maxOccupancy,\n    string memory _description,//not sure if this needs to be on chain\n    bool _allInclusive,\n    uint _cxlPolicy,\n    uint _commission\n  ) public onlyOwner {\n        uint id = roomTypeCounter.current();\n        RoomType memory _newRoomType = RoomType({\n            roomTypeId: id,\n            roomName: _roomName,\n            maxOccupancy: _maxOccupancy,\n            description: _description,\n            allInclusive: _allInclusive,\n            cxlPolicy: _cxlPolicy,\n            commission: _commission\n            });\n\n            roomTypes.push(_newRoomType);\n            idToRoomType[id] = _newRoomType;\n            roomTypeCounter.increment();\n  }\n\n\n    function getNumDays(uint startTimestamp, uint endTimeStamp) internal pure returns (uint) {\n      uint diff = endTimeStamp - startTimestamp;\n      uint numDays = diff / DAY_IN_SECONDS;\n      return numDays;\n    }\n\n    function getTimestampsAndArrays(\n      uint8 startDay,\n      uint8 startMonth,\n      uint16 startYear,\n      uint8 endDay,\n      uint8 endMonth,\n      uint16 endYear\n    ) public view onlyOwner returns (\n      uint[] memory, uint[] memory, uint, uint) {\n\n      uint startTimestamp = toTimestamp(startYear, startDay, startMonth);\n      uint endTimestamp = toTimestamp(endYear, endDay, endMonth);\n      uint numDays = getNumDays(startTimestamp, endTimestamp);\n\n      uint[] memory tokenIds = new uint[](numDays);\n      uint[] memory amounts = new uint[](numDays);\n\n      return (tokenIds, amounts, startTimestamp, endTimestamp);\n    }\n    //takes a room type, date range, price, and amount of rooms to be minted each night\n    //creates a roomNight struct for each date, assigns them a unique token id, and mints/\n    function mintRoomNightHelper(\n      uint _roomTypeId,\n      uint amount,\n      uint _price,\n      uint[] memory tokenIds,\n      uint[] memory amounts,\n      uint startTimestamp,\n      uint endTimestamp\n    ) internal onlyOwner {\n\n      for(uint i=startTimestamp; i<endTimestamp; i+DAY_IN_SECONDS) {\n        uint _tokenId = roomNightCounter.current();\n        uint _index = index.current();\n\n        RoomNight memory _newRoomNight = RoomNight({\n          roomTypeId: _roomTypeId,\n          date: i,\n          price: _price,\n          tokenId: _tokenId\n        });\n\n        idToRoomNight[_tokenId] = _newRoomNight;\n        tokenIds[_index] = _tokenId;\n        amounts[_index] = amount;\n\n        roomNightCounter.increment();\n        index.increment();\n        }\n\n        _mintBatch(manager, tokenIds, amounts, \"\");\n        index.reset();\n      }\n\n      function mintRoomNights(\n        uint roomTypeId,\n        uint amount,\n        uint price,\n        uint8 startDay,\n        uint8 startMonth,\n        uint16 startYear,\n        uint8 endDay,\n        uint8 endMonth,\n        uint16 endYear\n      ) public onlyOwner {\n\n        (uint[] memory ids, uint[] memory amounts, uint start, uint end) =\n        getTimestampsAndArrays(startDay, startMonth, startYear, endDay, endMonth, endYear);\n\n        mintRoomNightHelper(roomTypeId, amount, price, ids, amounts, start, end);\n      }\n    }\n\n    //     function mintAndList(\n    //     uint _roomTypeId,\n    //     uint amount,\n    //     uint8 startDay,\n    //     uint8 startMonth,\n    //     uint16 startYear,\n    //     uint8 endDay,\n    //     uint8 endMonth,\n    //     uint16 endYear,\n    //     uint _price\n    //   ) public OnlyOwner {\n    //       MintRoomNights(\n    //         _roomTypeId,\n    //         amount,\n    //         startDay,\n    //         startMonth,\n    //         startYear,\n    //         endDay,\n    //         endMonth,\n    //         endYear,\n    //         _price);\n    //\n    //\n    //   }\n    //\n    //   function setURI(string memory newuri) public onlyOwner {\n    //       _setURI(newuri);\n    //   }\n    //\n    // }\n",
  "sourcePath": "/Users/randy/Documents/Development/travelmine/contracts/Hotel.sol",
  "compiler": {
    "name": "solc",
    "version": "0.8.2+commit.661d1103.Emscripten.clang"
  },
  "schemaVersion": "3.4.3",
  "updatedAt": "2021-10-28T04:42:24.051Z",
  "devdoc": {
    "kind": "dev",
    "methods": {
      "balanceOf(address,uint256)": {
        "details": "See {IERC1155-balanceOf}. Requirements: - `account` cannot be the zero address."
      },
      "balanceOfBatch(address[],uint256[])": {
        "details": "See {IERC1155-balanceOfBatch}. Requirements: - `accounts` and `ids` must have the same length."
      },
      "isApprovedForAll(address,address)": {
        "details": "See {IERC1155-isApprovedForAll}."
      },
      "owner()": {
        "details": "Returns the address of the current owner."
      },
      "renounceOwnership()": {
        "details": "Leaves the contract without owner. It will not be possible to call `onlyOwner` functions anymore. Can only be called by the current owner. NOTE: Renouncing ownership will leave the contract without an owner, thereby removing any functionality that is only available to the owner."
      },
      "safeBatchTransferFrom(address,address,uint256[],uint256[],bytes)": {
        "details": "See {IERC1155-safeBatchTransferFrom}."
      },
      "safeTransferFrom(address,address,uint256,uint256,bytes)": {
        "details": "See {IERC1155-safeTransferFrom}."
      },
      "setApprovalForAll(address,bool)": {
        "details": "See {IERC1155-setApprovalForAll}."
      },
      "supportsInterface(bytes4)": {
        "details": "See {IERC165-supportsInterface}."
      },
      "transferOwnership(address)": {
        "details": "Transfers ownership of the contract to a new account (`newOwner`). Can only be called by the current owner."
      },
      "uri(uint256)": {
        "details": "See {IERC1155MetadataURI-uri}. This implementation returns the same URI for *all* token types. It relies on the token type ID substitution mechanism https://eips.ethereum.org/EIPS/eip-1155#metadata[defined in the EIP]. Clients calling this function must replace the `\\{id\\}` substring with the actual token type ID."
      }
    },
    "version": 1
  },
  "userdoc": {
    "kind": "user",
    "methods": {},
    "version": 1
  }
}